:0A0000000C943D000C9400000C94D9
:10000A0000000C9400000C9400000C9400000C9466
:10001A0000000C9400000C9400000C9400000C9456
:10002A0000000C9400000C9400000C9400000C9446
:10003A0000000C9400000C9400000C9400000C9436
:10004A0000000C9400000C940000543A2025322E33
:10005A003266200A00002D4E414E000001002D4E4E
:10006A00414E00494E460000010060026600000051
:10007A00F894EE27ECBBF1E0F5BFE5BF8DE0A2E016
:10008A00BB27ED938A95E9F780E098E0A0E6ED9327
:10009A000197E9F7E2E7F0E085919591009761F021
:1000AA00A591B59105901590BF01F00105900D92AB
:1000BA000197E1F7FB01F0CFEFE5EDBFE8E0EEBF16
:1000CA00C0E6D2E00C947600AA93E881E7B987E00B
:1000DA008A95F1F7369A349BFECF349AE4B1F5B19A
:1000EA0078C06497E0E0EABBEBBBE7BBE8BBE4BBE4
:1000FA00E5BBE1BBE2BBE3BFE2BFECBFEFBDEEBDD8
:10010A00EDBDECBDE7BDE6BDEBBDEABDE9BDE8BDB1
:10011A00E2BDE5BDE4BDE3BDE9BFE5BFE4BFEBB9C0
:10012A00E8E0EAB9E6E8E0BDE0E0E0BDECE0E9B924
:10013A00E0E8E8B9E0E0E7B9E1E8E6B9E0E0E0BF25
:10014A00EDB9E6BFA0E0C0DF8F010E944F05A0E035
:10015A00B0E08AEF93E40E944D070E9454050E9482
:10016A005905E0E0F0EC6FE774E40E949B070E94F7
:10017A005405FE01FA93EA93E4E5F0E0FA93EA9370
:10018A00EC89FD896E897F890E94840884E00E9437
:10019A001204289620E030E02031E0E03E0774F4B3
:1001AA00DE01A20FB31FAC910FD0DE01A20FB31F65
:1001BA00EC91E03019F02F5F3F4FEECFA8ECB0E0A2
:1001CA000E944D06BFCFFFCFAA935D9BFECFE88169
:1001DA00ECB921960895BA93AA931A930A93AA811D
:1001EA00BB8112960E946B08309729F1AA81BB81C4
:1001FA0014960E946B088F01309761F00230E0E09C
:10020A001E0780F0F80131978F01AA81BB811496ED
:10021A00ED93FC93AA81BB8112960E945E053197E9
:10022A00AC81A083AA81BB810E946B08FF2312F0D4
:10023A000E945E0506C0AA81BB81EFEFFFEFED9336
:10024A00FC9319810881259608950E946405E0E8C7
:10025A00EA83EFE3EB830E94A108EE85FF85EF3F77
:10026A00AFEFFA0749F4E885F985FA93EA93A0E62D
:10027A00B0E00E944604B7C0EF3FAFE7FA0749F47F
:10028A00E885F985FA93EA93A1E6B0E00E9446046C
:10029A00AAC0AB85A73010F0E6E0EB871B85E12FFB
:1002AA001150E03019F00E946B05F9CFEC85FD85FD
:1002BA006E857F850E949B0821F430E00E946B05C1
:1002CA002DC03B850E947A0509F008F40BC00E94F4
:1002DA006B050E947A0528F00E9485050E948A050E
:1002EA00F8CF0DC00E947A0540F40E9485050E944D
:1002FA0096050E949D053150F5CF0E946B05EC854D
:10030A00FD856E857F850E94A2050E949D050E943B
:10031A007A0520F00E9485050E948A0510E0EB8587
:10032A00E117A8F1AC81BD818E819F810E94A90548
:10033A000E94A205DF01CB010E949D04EC83FD838C
:10034A006E837F830E9485050E949B070E948A060E
:10035A000E2F0E94B0050E94B705FF276627772750
:10036A000E94C306AC81BD818E819F810E944D0788
:10037A000E9485050E94BC050E949D05E12F1F5F12
:10038A00E03069F60E94B005EEE2EC93C8CF0E9415
:10039A00C1053197AA85A08330302CF43195A88500
:1003AA00B985EDE203C0A885B985EBE2EC930E941A
:1003BA00C1050E94C1053197BF01A32FEAE00E943F
:1003CA002508E05DDB01EC930E94C1053197BF016E
:1003DA00A32FEAE00E944F08E05DDB01EC93A885B9
:1003EA00B985E0E0EC930E94A80860960895BA9354
:1003FA00AA93EF9761970E949F0810E0FE01E85ABE
:10040A00FF4F0190F081E02DE887F987FE01EA5A53
:10041A00FF4F0190F081E02DEE83FF83AE81BF8113
:10042A00E0E0F0E0ED93FC93DE01A45ABF4F0E9496
:10043A005E053197E4912E2FE03009F4E5C1E12FF2
:10044A00E03039F4253211F411E002C00E94C705E8
:10045A00DAC1E130C1F4253219F40E94C705D2C1CC
:10046A0012E0E0E0ED8B00E02D3211F401E0CBC1A7
:10047A002B3219F4EBE2ED8BC6C1203219F4E0E21B
:10048A00ED8BC1C102C0E23039F450E013E02033F1
:10049A0011F40068B8C102C0E33091F4203310F0BF
:1004AA002A3308F007C0AAE05A9F502DE22FE053E2
:1004BA005E0FA9C140E02E3211F414E0A4C10FC0AE
:1004CA00E43099F4203310F02A3308F008C00062AF
:1004DA00AAE04A9F402DE22FE0534E0F94C12C36DA
:1004EA0019F4026015E08FC103C0E53009F08BC131
:1004FA00E22FE33659F40E94CE050E94D5050E94E8
:10050A00CE05A481AA930E94DC057CC1E53411F0D2
:10051A00E53609F403C0E63609F048C0FE017696CE
:10052A00EE87FF870E94E2050E946F080E94E90594
:10053A000E94EE05AD85AA2332F0AD89AB3259F09F
:10054A00A03281F017C00E94F0050E9457060E944F
:10055A00E905EDE2ED8B07FF05C0ED89EA930E94FC
:10056A00DC0508C0EE85FF853196EE87FF87319757
:10057A00AD89A08305FF46E0263651F40E94F005B6
:10058A000E9484084A93AB89BC890E94B40409C0BA
:10059A000E94F0050E9484084A932A93AC89BD8977
:1005AA0054DEFE0176960E94F5051EC0E33739F443
:1005BA000E94EE050E94FD050E94F5050EC0E03777
:1005CA00C1F40E94EE050E94FD05EE87FF87AE8505
:1005DA00BF850E945F041E2F08600F77403011F01C
:1005EA00411708F001C0142F40E0E0E0EC8B30E046
:1005FA006DC0E43611F0E93611F4046002C0E53743
:10060A00A1F4EAE0EC8B01FF08C0E0E0FAEC6AE949
:10061A007BE30E9454051AE022C0E0E1F7E260E0C1
:10062A0070E00E94540515E01AC0E83511F408601C
:10063A0003C0E83709F0E6C0E0E1EC8B01FF08C02F
:10064A00E0E0F0E060E070E10E94540518E007C0C5
:10065A00E0E0F0E160E070E00E94540514E0403010
:10066A0011F00F7701C041E001FF08C00E94EE05BA
:10067A000E94E20514960E946F080FC002FF07C08D
:10068A000E94EE050E94FD050E94120806C00E9403
:10069A00EE050E94FD0566277727EA87FB876C87A8
:1006AA007D8702FF12C0AD85AA2342F40E94F0059D
:1006BA000E9404080E94E905EDE2ED8BED89E03025
:1006CA0019F01F5F4F5F01C00B7F342F00FD14C06C
:1006DA00151710F4351708F00FC007FF08C002FFFE
:1006EA0004C00B7F2D89115001C020E301C020E214
:1006FA000E94C7055150ECCF141790F4006102FF15
:10070A0006C00E94020609F0515011504150E0E320
:10071A00EA930E94DC05503009F051504150ECCF69
:10072A00312FEC89E030B9F43030A1F003FF06C074
:10073A00EE85FF852591EE87FF8705C0AE85BF85CB
:10074A002D91AE87BF870E94C705503009F05150DE
:10075A003150EACF4DC00E9414060E942A082E2F5B
:10076A002A3030F003FF02C0295C01C0295A01C0B7
:10077A00205D04FD1FC0213350F40E945905A130A9
:10078A00E0E0BE07E0E08E07E0E09E0709F40BC058
:10079A00431740F4531710F000FF01C010C020E2C5
:1007AA0007FF08C020E3006102FF04C00E9402069E
:1007BA0009F051500E94C705503009F0515031508C
:1007CA000E9414060E945B080E94E905EC890E94B7
:1007DA005905FF27662777270E942A080E94540591
:1007EA00E889F9896A897B890E949B0809F0B3CF55
:1007FA0000FF08C0503031F05150E0E2EA930E9405
:10080A00DC05F8CF10E010CEAE81BF810E946B08E4
:10081A000E94A608EF966F960895FF92F82E2697E3
:10082A000E94A1080E941D06309719F4EFEFFFEF0E
:10083A0023C0DE0116960E9400088D010E941D0643
:10084A00EE83FF83E0E0E887E987DE011A960E94DB
:10085A0000080E946B08FA93EA931A930A93E0EF4E
:10086A00F0E0FA93EA93DE011A96C1DD9F01AE81A8
:10087A00BF81E0E0EC93F9010E94A8082A96FF9054
:10088A000895BA93AA93E991F991A991B991CD01E1
:10089A0005900D920020E1F7FC010895BA93AA93FE
:1008AA00A991B991EE27FF276D91662311F0319630
:1008BA00FBCF0895BA93AA93AA27BB27E991F99186
:1008CA000590002011F01196FBCFFD0108950E94BA
:1008DA0089087B816A81F981E88177FB770F67FD57
:1008EA007160972F9E5781F078F0983190F4AA277B
:1008FA00BB27882708948795B795A7959A95D1F726
:10090A00EA23FB23682305C0E8947727EE27FF270D
:10091A0066276F77769508F4606877F9A991B99197
:10092A0089919991EA17FB076807790797FB089558
:10093A000E9489080E947A080E946C040E947F081B
:10094A0019F40E94750809C0E6F70E947508A0E02C
:10095A00B0E080E89FE30E94F60624960895AFD09F
:10096A00E0E0EA83EFE3EB831A930A93EB85FC85D5
:10097A00EF3FAFEFFA0731F462D1A8E6B0E00E9488
:10098A00460484C0EF3FAFE7FA0731F458D1A9E62D
:10099A00B0E00E9446047AC0AC85AA2352F4E985E5
:1009AA00FA856B857C850E9457064ED152D1EDE2BD
:1009BA00EC93A885A73010F0E6E0E8871885E12FC8
:1009CA001150E03021F04CD1BFD04FD1F8CF52D1E5
:1009DA000E94FD0639D110E0E0E0F0E060E87FE334
:1009EA0044D148D10E94E00768F03AD19AD03DD16B
:1009FA001F5F173230F023D1ADE6B0E00E94460403
:100A0A0045C0EFCF103021F424D1E0E3EC931DC0B0
:100A1A00E12F1150E030C9F023D196D08ED0DF01FA
:100A2A00CB010E949D0421D125D10E949B070E94DF
:100A3A008A060E2F0ED196D0F0E012D12BD00E944A
:100A4A004D0721D194D000D1E3CFE885E030D1F031
:100A5A0000D1EEE2EC93E885E150E887EF5F91F090
:100A6A0012D15FD0F1D0E985FA856B857C850E9429
:100A7A008A060E2FEED076D0F0E005D10BD077D0D3
:100A8A00E3D0E9CFAE81BF81E0E0EC931981088120
:100A9A002D9608950E9412080E94C3060895E88BB5
:100AAA00F98B6A8B7B8B0895A889B9898A899B8976
:100ABA000895ED91FD913196FE93EE930895BA93C0
:100ACA00AA932497E0E0E883E9830895AC81BD8185
:100ADA008E819F81E0E0F0E060E271E40E944D07C0
:100AEA00EC83FD836E837F830895EC81FD816E81A3
:100AFA007F81AC85BD858E859F850E94E00708951C
:100B0A00AC85BD858E859F850895EDECFCEC6CEC7B
:100B1A007DE30E944D07EC87FD876E877F873F5FE5
:100B2A000895E0E0F0E060E271E40E944D07089564
:100B3A00EC87FD876E877F870895A0E0B0E080E0AC
:100B4A009FE30E94FD060895EDECFCEC6CEC7DE35E
:100B5A000E944D070895A885B9851196A887B98777
:100B6A0011970895E02FE05DEC93E02F08950E941D
:100B7A008E080E94F6060895E885F9853196E88779
:100B8A00F98708952A93AF81B885E985FA85099589
:100B9A000895FE01E65AFF4F0190F081E02D089575
:100BAA003497DE01A65ABF4FED93FC930895AF81A7
:100BBA00B885E985FA8509950895DE01A65ABF4FD9
:100BCA000D90BC91A02D0895EA87FB876C877D87DD
:100BDA000895DFDFE5CFEA85FB856C857D8508957D
:100BEA00EE87FF87AE85BF850E9453041E2F0895A6
:100BFA00E4DF14960E946B0808950B7FED89EA934F
:100C0A00DE01A95ABF4F0D90BC91A02DFE01E75AF3
:100C1A00FF4F0190F081E02D099550300895E88941
:100C2A00F9896A897B89AA85BB858C859D85089502
:100C3A00DE011C960E9400080E946B080895EE814E
:100C4A00FF81FA93EA930895E987FA876B877C878D
:100C5A000895AE81BF811196AE83BF83119708951F
:100C6A00AA81BB818C819D810895EA83FB836C8371
:100C7A007D830895EA81FB816C817D81A985BA858E
:100C8A008B859C850895A985BA858B859C85089551
:100C9A00109639F0A89584EF91E00197F1F7119732
:100CAA00C9F7089530976040704009F07058089568
:100CBA00552342F4503811F4E0FF04C03196691FFD
:100CCA00791F6BF050E8572711F45F93CFC05F3F4D
:100CDA0031F0660F000C57956795752F08955F934D
:100CEA0000200AF0CFC0C8C050E8192E1522880F7C
:100CFA00991F9527550F879550E8072E0522660FED
:100D0A00771F7527550F67950895689401C0E89471
:100D1A005F93F2DF703818F07F3F08F4A7C056E1FE
:100D2A00571BAAF4519558300EF4593030F0EFEFB2
:100D3A00FFEF6FEF7FE777F91AC077275523B9F0EE
:100D4A00EE0FFF1F661F771F5A95D1F710C077273E
:100D5A00583028F0EF2FF62F672F5850F9CF552328
:100D6A0031F076956795F795E7955A95D1F7002072
:100D7A000AF445D15F910895689401C0E8943097C8
:100D8A0060407040B1F0002426F0772312F40094FA
:100D9A0036D1172E7EE1112032F07A95EE0FFF1F21
:100DAA00661F111CF9CFEF2FF62F612D5F938ADF93
:100DBA005F9108954F93AF01FD01DA01AB01BC01C8
:100DCA00CA01402D012C142E4F910895EA0FFB1FE2
:100DDA00681F0895E095F0956095EF5FFF4F6F4F9C
:100DEA0008955F9381DF903871F150E8152604C0A9
:100DFA005F937ADF903839F1703821F1572F591BF8
:100E0A002BF112F4D7DFFACF583118F0AA27BB27F3
:100E1A008827583028F0AB2FB82F88275850F9CF99
:100E2A00552329F08695B795A7955A95D9F7502D48
:100E3A00512572F0CBDF38F46795F795E7957395EE
:100E4A0013F420C0B7DF3EDF5F910895D8F7FBCFD8
:100E5A00EA1BFB0B680B51F010F40094BBDF66230E
:100E6A0092F3EE0FFF1F661F7A95CBF7EE27FF2747
:100E7A00662777275F910895EFEFFFEF6FE77FEF20
:100E8A005F910895EFEFFFEF6FE77FE75F910895B6
:100E9A005F932ADF703851F3903841F301240894A4
:100EAA00791F23F41CF300203AF3ECCF0F921F931F
:100EBA002F933F934F93112722279927689FA001C9
:100ECA008F9F302D410D591F6B9F300D411D591FAA
:100EDA008E9F27D0BF9F25D06A9F23D0BE9F1DD04B
:100EEA00AF9F1BD0AE9F110D291F391F491F591FD4
:100EFA00E32FF42F652F522F4F913F912F911F917E
:100F0A000F9066232AF0550FEE1FFF1F661F02C0BF
:100F1A0073954BF2CDDE5F910895100D211D391F97
:100F2A0002C0200D311D491F591F08955F93DCDE51
:100F3A00703821F411200AF49FCFA4CF903809F415
:100F4A0095CF01240894970B1BF4D4F30020F3CF18
:100F5A00792F1F932F933F934F9311241127222701
:100F6A0033274427552790E2AE17BF078607410764
:100F7A0030F0AE1BBF0B860B410B089401C088945E
:100F8A00551F221F331F111CAA1FBB1F881F441F76
:100F9A009A9551F7F901612D4F913F912F911F9128
:100FAA00662332F0550FEE1FFF1F661F7A9543F234
:100FBA007FDE5F91089599239AF0772342F097177D
:100FCA0048F029F4AE17BF07860720F031F098944D
:100FDA008894089598940894089518948894089584
:100FEA007723C2F7971798F3A9F7EA17FB07680759
:100FFA0088F399F3ECCF0024AF0DB01D0895F09556
:10100A0060957095E195FF4F6F4F7F4F0895FE2FC2
:10101A00FF0FFF0B6F2F7F2F08956F2F660F660B41
:10102A00762F0895002498E0AA0F001C0E1A10F4D7
:10103A000E0E01C0A1609A95B9F7EA2FA02D089566
:10104A0039D0F0DF0EF4E19508953F934F935F9303
:10105A00002411244427552730E2AA0FBB1F881FFA
:10106A00991F001C111C441F551F0E1A1F0A460BFC
:10107A00570B28F40E0E1F1E461F571F01C0A160F2
:10108A003A9559F7FD01BC01D001CA015F914F9110
:10109A003F910895E894A7FF02C0A1956894E7FDDF
:1010AA00E195C0DFEA2F0EF4E1950895CEDFFD0148
:1010BA00BC010895E894E7FF02C0E1956894A7FF90
:1010CA0004C0A19500F8039400FA0895ED91FC91EB
:1010DA0011970895ED91FD916D917C911397089563
:1010EA00E881F9816A817B810895A881B9818A8121
:1010FA009B810895E883F9836A837B8308957A93B1
:10110A006A93FA93EA9308959A938A93BA93AA935D
:10111A000895182E862F612D192E972F712D1B2EAB
:10112A00BF2FF12D1A2EAE2FE12D08953097604072
:10113A00704008955A934A933A932A931A930A93BA
:10114A0008955D814C813B812A8119810881089526
:00000001FF
