:020000000C945E
:1000020039000C9400000C9400000C9400000C9435
:1000120000000C9400000C9400000C9400000C945E
:1000220000000C9400000C9400000C9400000C944E
:1000320000000C9400000C9400000C9400000C943E
:1000420000000C9400000C9400000C9400000C942E
:1000520000001027E80364000A00010000100001FC
:1000620010000100543A2025322E3266200A000088
:10007200F894EE27ECBBF1E0F5BFE5BF8DE0A2E01E
:10008200BB27ED938A95E9F780E098E0A0E6ED932F
:100092000197E9F7EFE5EDBFE8E0EEBFC0E6D2E099
:1000A2000C946000AA93E881E7B987E08A95F1F79A
:1000B200369A349BFECF349AE4B1F5B180C064978E
:1000C200E0E0EABBEBBBE7BBE8BBE4BBE5BBE1BB03
:1000D200E2BBE3BFE2BFECBFEFBDEEBDEDBDECBDE9
:1000E200E7BDE6BDEBBDEABDE9BDE8BDE2BDE5BDEC
:1000F200E4BDE3BDE9BFE5BFE4BFEBB9E8E0EAB9BF
:10010200E6E8E0BDE0E0E0BDECE0E9B9E0E8E8B94E
:10011200E0E0E7B9E1E8E6B9E0E0E0BFEDB9E6BF6B
:10012200A0E0C0DF8F010E94D9030E940803A0E073
:10013200B0E08AEF93E40E943603E88BF98B6A8B76
:100142007B8BA889B9898A899B89E0E0F0EC6FE70B
:1001520074E40E948403E88BF98B6A8B7B8BFE012B
:10016200FA93EA93E6E6F0E0FA93EA93EC89FD89E2
:100172006E897F890E94E60384E00E9456022896D7
:1001820020E030E02031E0E03E0774F4DE01A20F0F
:10019200B31FAC910FD0DE01A20FB31FEC91E03080
:1001A20019F02F5F3F4FEECFA4EFB1E00E94CF02D4
:1001B200B7CFFFCFAA935D9BFECFE881ECB9219622
:1001C2000895BA93AA931A930A93AA81BB811296AD
:1001D2000E94DE03309759F1AA81BB8114960E94D6
:1001E200DE038F01309761F00230E0E01E0798F0E5
:1001F200F80131978F01AA81BB811496ED93FC938C
:10020200AA81BB811296ED91FD913196FE93EE93F8
:100212003197AC81A083AA81BB810E94DE03FF23B8
:100222002AF0ED91FD913196FE93EE9306C0AA81DC
:10023200BB81EFEFFFEFED93FC93198108812596C7
:100242000895BA93AA9326970E94EB0310E0AC8517
:10025200BD85E0E0F0E0ED93FC93EA89FB893196FD
:10026200EA8BFB8B3197E4912E2FE03009F415C114
:10027200E12FE03039F4253211F411E002C00E947E
:10028200A3020AC1E130A9F4253219F40E94A302A3
:1002920002C112E040E000E02D3211F401E0FCC0A6
:1002A2002B3211F44BE2F8C0203211F440E2F4C0D8
:1002B20002C0E23039F450E013E0203311F4006858
:1002C200EBC003C0E33009F0E7C0203310F02A335B
:1002D20008F007C0AAE05A9F502DE22FE0535E0FAC
:1002E200DBC0E22FE33649F40E94AA02E889F989C9
:1002F200A481AA930E94B002CEC0E33741F40E94C7
:10030200AA020E94B6020E948A021E2F0AC0E03789
:1003120061F40E94AA020E94B6020E9496021E2F57
:10032200086002600F7730E034C0E43611F0E9363D
:1003320011F4046002C0E53731F4E4E5F0E0EE8345
:10034200FF8315E00CC0E83511F4086003C0E837FC
:1003520009F0A1C0EEE5F0E0EE83FF8314E002FFB6
:1003620014C00E94AA020E94C002AB85AA233AF4DA
:10037200EA85FB850E94CD03EA87FB874DE2403088
:1003820011F01F5F01C00B7F04C00E94AA020E94ED
:10039200C00200FD11C0151778F407FF08C002FF64
:1003A20004C00B7F242F115001C020E301C020E2C2
:1003B2000E94A3025150EFCF312F01FF17C03030FE
:1003C200A1F003FF06C0EE81FF812591EE83FF833A
:1003D20005C0AE81BF812D91AE83BF830E94A3026F
:1003E200503009F051503150EACF4BC020E3EE813A
:1003F200FF810E94E203E887F987EE81FF8132964E
:10040200EE83FF83E885F985AA85BB85AE17BF0712
:1004120050F02F5FA885B985EA85FB85EA1BFB0BA7
:10042200EA87FB87EFCF2A3328F003FF02C0295F58
:1004320001C0295D04FD1AC0213320F4A885B985C5
:10044200119709F409C0531710F000FF01C013C03F
:1004520020E207FF0BC020E3006102FF07C00B7F11
:100462004A930E94B002503009F051500E94A302F8
:10047200503009F051503150A885B985129708F0D3
:10048200B5CF00FF08C0503031F05150E0E2EA939E
:100492000E94B002F8CF10E0E0CEAC85BD850E948C
:1004A200DE030E94F20364960895FF92F82E2697C7
:1004B2000E94ED030E94C802309719F4EFEFFFEF9C
:1004C20023C0DE0116960E94C9038D010E94C80254
:1004D200EE83FF83E0E0E887E987DE011A960E9457
:1004E200C9030E94DE03FA93EA931A930A93E2EE97
:1004F200F0E0FA93EA93DE011A96A3DE9F01AE8141
:10050200BF81E0E0EC93F9010E94F4032A96FF9088
:100512000895BA93AA93A991B991EE27FF276D91F5
:10052200662311F03196FBCF0895BA93AA93AA27B6
:10053200BB27E991F9910590002011F01196FBCFAC
:10054200FD0108952A93AD85BE85EF85F889099549
:100552000895E889F9893497E88BF98B0895AD8578
:10056200BE85EF85F88909950895A889B9891496F9
:100572000E94DE03EE83FF83AE81BF810895A889C6
:10058200B98914960E94DE03EA87FB870895DE018B
:100592001C960E94C9030E94DE030895109639F04A
:1005A200A89584EF91E00197F1F71197C9F70895A3
:1005B200552342F4503811F4E0FF04C03196691F0C
:1005C200791F6BF050E8572711F45F933CC05F3FEF
:1005D20031F0660F000C57956795752F08955F935C
:1005E20000200AF03CC035C050E8192E1522880FB1
:1005F200991F9527550F879550E8072E0522660FFC
:10060200771F7527550F67950895689401C0E89480
:10061200309760407040B1F0002426F0772312F446
:100622000094BED0172E7EE1112032F07A95EE0FA3
:10063200FF1F661F111CF9CFEF2FF62F612D5F935D
:10064200C1DF5F910895EE27FF27662777275F9125
:100652000895EFEFFFEF6FE77FEF5F910895EFEF00
:10066200FFEF6FE77FE75F9108955F93BDDF70381B
:1006720051F3903841F301240894791F23F41CF3B9
:1006820000203AF3ECCF0F921F932F933F934F9397
:10069200112722279927689FA0018F9F302D410D96
:1006A200591F6B9F300D411D591F8E9F27D0BF9F31
:1006B20025D06A9F23D0BE9F1DD0AF9F1BD0AE9F77
:1006C200110D291F391F491F591FE32FF42F652FC1
:1006D200522F4F913F912F911F910F9066232AF035
:1006E200550FEE1FFF1F661F02C073954BF260DFAE
:1006F2005F910895100D211D391F02C0200D311D7B
:10070200491F591F08955F936FDF703821F411203C
:100712000AF49FCFA4CF903809F495CF012408940E
:10072200970B1BF4D4F30020F3CF792F1F932F9351
:100732003F934F931124112722273327442755270C
:1007420090E2AE17BF078607410730F0AE1BBF0B22
:10075200860B410B089401C08894551F221F331F3A
:10076200111CAA1FBB1F881F441F9A9551F7F9013C
:10077200612D4F913F912F911F91662332F0550FBA
:10078200EE1FFF1F661F7A9543F212DF5F910895F5
:100792000024AF0DB01D0895F195E195F040089544
:1007A200F09560957095E195FF4F6F4F7F4F0895DB
:1007B2006F2F660F660B762F0895ED91FC911197BE
:1007C20008950590F491E02D08957A936A93FA932F
:1007D200EA9308955A934A933A932A931A930A935F
:1007E20008955D814C813B812A8119810881089598
:00000001FF
